:100000000A128A11E42FFF1B0D2883137F18831710
:100010000008840A0319FF0A080000308A00040857
:10002000840A8207003454347234793420346134C1
:100030006734613469346E34203469346E3420346A
:100040003334303473340034203445346E347434F3
:1000500065347234203474346834653420344B345D
:1000600065347934203400342034533465346334B7
:100070007534723469347434793420344B346534D3
:100080007934203400344134633463346534733458
:100090007334203442344C344F3443344B3445347D
:1000A000443400344134633463346534733473341A
:1000B00020344734723461346E34743465346434BB
:1000C000003441346334633465347334733420341E
:1000D000443465346E3469346534643400345734E0
:1000E00065346C3463346F346D34653420344D348E
:1000F000523431340034573465346C3463346F34E3
:100100006D34653420344D34523432340034533439
:1001100065346334753472346934743469347934D1
:1001200020340034533448345534543444344F3438
:0601300057344E34003488
:10028400F030831686007F30FF007F088105080068
:10029400F001F1010130F0070318F10A0030F10711
:1002A40003307102E93003197002031808004C2965
:1002B4007E088A007F0882005A210A128A1180006F
:1002C400840A04087D0603190034FF0A0319FE0A90
:1002D4005E298316051183120515FE30F200A7303E
:1002E400F1006530F000F00B7529F10B7529F20B64
:1002F40075297C298312031305110800F50075087C
:10030400F4000130F2020030031CF303F302720A1A
:100314000319730A0319080074088400700883130E
:1003240080000130FF007F08F407832983168511BC
:1003340083128515FE30F200A730F1006530F0001D
:10034400F00BA229F10BA229F20BA229A9298312ED
:100354000313851183168512831285160800023053
:100364000A128A1166220A128A1128300A128A1184
:1003740066220A128A110E300A128A1166220A12A1
:100384008A1106300A128A1166220A128A118030F2
:100394000A128A116622080031343234333441346B
:1003A40034343534363442343734383439344334DD
:1003B4002A3430342334453432343334373431340A
:1003C4000034343435343634373400343134323450
:1003D4003334343400347508FF00740884000A127E
:1003E4008A1103200A128A11003A031908007508B9
:1003F400FF00740884000A128A1103200A128A1169
:100404000A128A1132220A128A110130F4070318DF
:10041400F50A0030F507ED29F5001D2A750884005A
:10042400000803192C2A0130FF007F08F50701306A
:10043400FF007F08F0077008840083130008F200AF
:10044400750884000008F30072087302F40074084D
:100454000319102A7408F000F101F01BF1030800DD
:10046400F30008150F30FF007F0888057308F03982
:10047400FF007F08880488150A128A114A210A128B
:100484008A1188110A128A114A210A128A110F301C
:10049400FF007F0888057308F20003300310F20D93
:1004A400FF3E031D502A0310720DF039FF007F0830
:1004B400880488150A128A114A210A128A1188119D
:1004C4000A128A114A210800F30083120313081147
:1004D4000F30FF007F0888057308F039FF007F089C
:1004E400880488150A128A114A210A128A1188116D
:1004F4000A128A114A210A128A110F30FF007F085A
:1005040088057308F20003300310F20DFF3E031D4B
:10051400862A0310720DF039FF007F0888048815BD
:100524000A128A114A210A128A1188110A128A119E
:100534004A2108000330F3000030F400831603134B
:100544000510831205141530F2004B30F100BE3053
:10055400F000F00BAB2AF10BAB2AF20BAB2A000034
:100564008312031305101530F2004B30F100BE3036
:10057400F000F00BBB2AF10BBB2AF20BBB2A0000E4
:10058400FF30F3070318F40AFF30F4077408803AC5
:10059400FF0080307F02031DD12A01307302031C47
:1005A4000800A02A0330F3000030F400831603137C
:1005B4008510831285141530F2004B30F100BE30E3
:1005C400F000F00BE32AF10BE32AF20BE32A00001C
:1005D4008312031385101530F2004B30F100BE3046
:1005E400F000F00BF32AF10BF32AF20BF32A0000CC
:1005F400FF30F3070318F40AFF30F4077408803A55
:10060400FF0080307F02031D092B01307302031C9D
:100614000800D82AF501F31F162BF209F309F20A90
:100624000319F30AF501F50AF11F1D2BF009F1096D
:10063400F00A0319F10A7008710403194A2BF40132
:10064400F40AF11B312B01300310F00DF10DFF3EC4
:10065400031D262B0130FF007F08F407232B7108AC
:100664007302031D372B70087202031C3F2B7008A2
:10067400F2027108031CF303F30201300310F10CBE
:10068400F00CFF3E031D402B0130F402031D312BFF
:1006940075080319522BF209F309F20A0319F30A34
:1006A4007308F1007208F0000800F501F11F612BD6
:1006B400F009F109F00A0319F10AF501F50AF31F2B
:1006C4006C2BF209F309F20A0319F30A0130FF0053
:1006D4007F08F506F601F701700871040319A32BCE
:1006E400F401F40AF11B822B01300310F00DF10D1B
:1006F400FF3E031D772B0130FF007F08F407742BA6
:1007040001300310F60DF70DFF3E031D832B710816
:100714007302031D8F2B70087202031C982B700840
:10072400F2027108031CF303F30276140130031080
:10073400F10CF00CFF3E031D992B0130F402031D54
:10074400822B75080319AB2BF609F709F60A03196E
:10075400F70A7708F1007608F000080001300A1261
:100764008A1166220A128A110130F4008030F500E1
:100774000A128A11ED210A128A111E30FB00003080
:10078400FC00C5300A128A1166220A128A110A3044
:10079400F0000030F1007C08F3007B08F2000A123C
:1007A4008A1157230A128A117008303E0A128A11DC
:1007B40032220A128A110A30F0000030F1007C085B
:1007C400F3007B08F2000A128A110C230A128A1120
:1007D4007008303E0A128A1132220A128A11183025
:1007E400FA005630F900F530F800F80BF72BF90B46
:1007F400F72BFA0BF72BFF30FB070318FC0AFF302B
:10080400FC077C08803AFF0080307F02031D0C2C1B
:1008140001307B020318C32BFF30FB070318FC0ACB
:10082400FF30FC077C08803AFF0080307F02031D04
:100834001D2C01307B02031C0800B02B8601061A14
:10084400861E682C061B861F682C212C0610861514
:10085400861D302C831203130615332C83120313C5
:100864000611061D392C8312031386143C2C8312A3
:1008740003138610061A861E432C061F432C861B60
:10088400452CFD016E2C86100614061A861E4E2C6D
:10089400061F4E2C861B512CFD01FD0A6E2C0611E1
:1008A4008614061A861E5A2C061F5A2C861B5C2C8C
:1008B4000230662C86110615061A861E652C061F44
:1008C400652C861B682C0330FD006E2C061A861ED0
:1008D400282C061B861F282C061E861E762C061B1B
:1008E400861F762CE9018F2C061A861A7F2C061B8C
:1008F400861F7F2CE901E90A8F2C061A861E872C95
:10090400061F861F872C02308E2C061A861E8F2CFB
:10091400061B861B8F2C0330E900061A861E8F2CBB
:10092400061B861F8F2C7D08F00002300310F00D8B
:10093400FF3E031D982C40307007F10069087107D1
:10094400F20072088400831300080800831605105F
:10095400831205141530F6004B30F500BE30F40058
:10096400F40BB22CF50BB22CF60BB22C0000831254
:10097400031305101530F6004B30F500BE30F400BB
:10098400F40BC22CF50BC22CF60BC22C0000831600
:1009940003138510831285141530F6004B30F500CF
:1009A400BE30F400F40BD42CF50BD42CF60BD42C61
:1009B40000008312031385101530F6004B30F50048
:1009C400BE30F400F40BE42CF50BE42CF60BE42C11
:1009D4000000831603130511831205151530F60064
:1009E4004B30F500BE30F400F40BF62CF50BF62C6E
:1009F400F60BF62C00008312031305111530F600D4
:100A04004B30F500BE30F400F40B062DF50B062D2B
:100A1400F60B062D0000831603138511831285152A
:100A24001530F6004B30F500BE30F400F40B182DF1
:100A3400F50B182DF60B182D0000831203138511E6
:100A44003330F600BB30F500DF30F400F40B282D12
:100A5400F50B282DF60B282D2F2D08300A128A119C
:100A640066220A128A1100300A128A1166220800CC
:100A74000330BC000030BD00831688010A128A11BD
:100A8400B1210A128A110A128A1142210A128A1108
:100A940001300A128A1166220A128A1180300A125F
:100AA4008A1166220A128A111230F4008030F5008D
:100AB4000A128A11ED210A128A11233084005A087D
:100AC40083138000840A5B088000840A5C08800029
:100AD400840A5D088000840A5E088000283084004F
:100AE40055088000840A56088000840A570880004C
:100AF400840A58088000840A590880002D30840034
:100B040050088000840A51088000840A520880003A
:100B1400840A53088000840A540880003730840013
:100B24000530FF008001840AFF0B942D32308400CD
:100B34000530FF008001840AFF0B9C2DBF01BE011C
:100B4400542F2830F00037300A128A110E220A126C
:100B54008A1170087104031DE22D01300A128A11F2
:100B640066220A128A114030F4008030F5000A121D
:100B74008A11ED210A128A11C0300A128A116622E2
:100B84000A128A116930F4008030F5000A128A11C1
:100B9400ED210A128A110A128A116B210A128A1192
:100BA400153083120313A2004B30A100BD30A00006
:100BB400A00BDA2DA10BDA2DA20BDA2DE12DC92F12
:100BC4002D30F00037300A128A110E220A128A11CF
:100BD40070087104031D212E01300A128A11662245
:100BE4000A128A114030F4008030F5000A128A118A
:100BF400ED210A128A11C0300A128A1166220A12E1
:100C04008A117530F4008030F5000A128A11ED2142
:100C14000A128A110A128A1198210A128A111530AD
:100C240083120313A2004B30A100BD30A000A00B1F
:100C3400192EA10B192EA20B192E202EC92F01300B
:100C44000A128A1166220A128A114F30F400803087
:100C5400F5000A128A11ED210A128A111530831245
:100C64000313A2004B30A100BD30A000A00B382E0E
:100C7400A10B382EA20B382E3F2E0A128A11D42231
:100C84000A128A11FF3083120313BC070318BD0A2A
:100C9400FF30BD07BF010030F000F1000530F20065
:100CA4000030F30037300A128A1180210A128A11A7
:100CB4000030F000F1000530F2000030F300323073
:100CC4000A128A1180210A128A11831203133C0822
:100CD4003D04031D3F2F01300A128A1166220A12B5
:100CE4008A113130F4008030F5000A128A11ED21A6
:100CF4000A128A110A128A119C220A128A111A30C3
:100D040083120313A2005E30A1006D30A000A00B7B
:100D1400892EA10B892EA20B892E902E83120313E8
:100D2400BE01BE0A0A128A11B0230A128A110130C6
:100D34000A128A1166220A128A1180300A128A1152
:100D440066220A128A112230F4008030F5000A1259
:100D54008A11ED210A128A113E080319542FC73053
:100D64000A128A1166220A128A110A128A1120248E
:100D74000A128A11FF003F08373E84007F08800072
:100D84003F08323E84002A3080003230F4000030C4
:100D9400F5000A128A11ED210A128A110130FF00AE
:100DA4007F08BF0704303F06031DAE2E2D30F00030
:100DB40037300A128A110E220A128A11700871043D
:100DC400031D1E2F01300A128A1166220A128A118B
:100DD4004030F4008030F5000A128A11ED210A1225
:100DE4008A11C0300A128A1166220A128A117530D9
:100DF400F4008030F5000A128A11ED210A128A11DA
:100E04000A128A1198210A128A11153083120313C7
:100E1400A2004B30A100BD30A000A00B0F2FA10BEE
:100E24000F2FA20B0F2F162F83120313BE010330B3
:100E3400BC000030BD00542F01300A128A11662212
:100E44000A128A118030F4008030F5000A128A11E7
:100E5400ED210A128A110A128A11A8240A128A118F
:100E640008300A128A1166220A128A1100300A1204
:100E74008A1166220A128A11AE2E01300A128A11D0
:100E840066220A128A1180300A128A1166220A1214
:100E94008A111230F4008030F5000A128A11ED2113
:100EA4000A128A113D08803AFF0080307F02031D38
:100EB4005D2F01303C02031CE12F831203133E0813
:100EC400031D872FC7300A128A1166220A128A115B
:100ED4000A128A1120240A128A11FF003F08373EA1
:100EE40084007F0880003F08323E84002A3080005E
:100EF4003230F4000030F5000A128A11ED210A1292
:100F04008A110130FF007F08BF0704303F06031D2C
:100F1400542F2330F00037300A128A110E220A129D
:100F24008A1170087104031DA32D01300A128A115D
:100F340066220A128A114030F4008030F5000A1249
:100F44008A11ED210A128A11C0300A128A1166220E
:100F54000A128A115D30F4008030F5000A128A11F9
:100F6400ED210A128A110A128A116B210A128A11BE
:100F7400153083120313A2004B30A100BD30A00032
:100F8400A00BC22FA10BC22FA20BC22FC92F00305E
:100F9400F000F1000530F2000030F30037300A129F
:100FA4008A1180210A128A110030F000F100053004
:100FB400F2000030F30032300A128A1180210A1242
:100FC4008A11002883135F30FD000130FE00CE300B
:100FD400FF00403084000A128A115E21DF01E00123
:100FE400E101E201E301E401E501E601E701E801D1
:0C0FF400E901FD0183010A128A113A2D67
:02400E007A3FF7
:00000001FF
